{
  "contractName": "Energytrading",
  "abi": [
    {
      "inputs": [
        {
          "internalType": "address",
          "name": "",
          "type": "address"
        }
      ],
      "name": "balances",
      "outputs": [
        {
          "internalType": "uint256",
          "name": "",
          "type": "uint256"
        }
      ],
      "stateMutability": "view",
      "type": "function",
      "constant": true
    },
    {
      "inputs": [
        {
          "internalType": "uint256",
          "name": "",
          "type": "uint256"
        }
      ],
      "name": "trades",
      "outputs": [
        {
          "internalType": "address",
          "name": "buyer",
          "type": "address"
        },
        {
          "internalType": "uint256",
          "name": "amount",
          "type": "uint256"
        },
        {
          "internalType": "uint256",
          "name": "price",
          "type": "uint256"
        }
      ],
      "stateMutability": "view",
      "type": "function",
      "constant": true
    },
    {
      "inputs": [
        {
          "internalType": "uint256",
          "name": "_amount",
          "type": "uint256"
        },
        {
          "internalType": "uint256",
          "name": "_price",
          "type": "uint256"
        }
      ],
      "name": "tradeEnergy",
      "outputs": [],
      "stateMutability": "nonpayable",
      "type": "function"
    },
    {
      "inputs": [
        {
          "internalType": "address",
          "name": "_owner",
          "type": "address"
        }
      ],
      "name": "balanceOf",
      "outputs": [
        {
          "internalType": "uint256",
          "name": "",
          "type": "uint256"
        }
      ],
      "stateMutability": "view",
      "type": "function",
      "constant": true
    },
    {
      "inputs": [],
      "name": "getTrades",
      "outputs": [
        {
          "components": [
            {
              "internalType": "address",
              "name": "buyer",
              "type": "address"
            },
            {
              "internalType": "uint256",
              "name": "amount",
              "type": "uint256"
            },
            {
              "internalType": "uint256",
              "name": "price",
              "type": "uint256"
            }
          ],
          "internalType": "struct Energytrading.Trade[]",
          "name": "",
          "type": "tuple[]"
        }
      ],
      "stateMutability": "view",
      "type": "function",
      "constant": true
    }
  ],
  "bytecode": "0x608060405234801561001057600080fd5b50610892806100206000396000f3fe608060405234801561001057600080fd5b50600436106100575760003560e01c80631e6c598e1461005c57806327e235e31461008e57806333252999146100be57806370a08231146100da578063e43372e91461010a575b600080fd5b61007660048036038101906100719190610496565b610128565b6040516100859392919061066f565b60405180910390f35b6100a860048036038101906100a3919061046d565b610182565b6040516100b59190610708565b60405180910390f35b6100d860048036038101906100d391906104bf565b61019a565b005b6100f460048036038101906100ef919061046d565b610332565b6040516101019190610708565b60405180910390f35b61011261037a565b60405161011f91906106a6565b60405180910390f35b6001818154811061013857600080fd5b90600052602060002090600302016000915090508060000160009054906101000a900473ffffffffffffffffffffffffffffffffffffffff16908060010154908060020154905083565b60006020528060005260406000206000915090505481565b600082116101dd576040517f08c379a00000000000000000000000000000000000000000000000000000000081526004016101d4906106c8565b60405180910390fd5b60008111610220576040517f08c379a0000000000000000000000000000000000000000000000000000000008152600401610217906106e8565b60405180910390fd5b816000803373ffffffffffffffffffffffffffffffffffffffff1673ffffffffffffffffffffffffffffffffffffffff168152602001908152602001600020600082825461026e919061076d565b92505081905550600160405180606001604052803373ffffffffffffffffffffffffffffffffffffffff16815260200184815260200183815250908060018154018082558091505060019003906000526020600020906003020160009091909190915060008201518160000160006101000a81548173ffffffffffffffffffffffffffffffffffffffff021916908373ffffffffffffffffffffffffffffffffffffffff160217905550602082015181600101556040820151816002015550505050565b60008060008373ffffffffffffffffffffffffffffffffffffffff1673ffffffffffffffffffffffffffffffffffffffff168152602001908152602001600020549050919050565b60606001805480602002602001604051908101604052809291908181526020016000905b8282101561043a57838290600052602060002090600302016040518060600160405290816000820160009054906101000a900473ffffffffffffffffffffffffffffffffffffffff1673ffffffffffffffffffffffffffffffffffffffff1673ffffffffffffffffffffffffffffffffffffffff168152602001600182015481526020016002820154815250508152602001906001019061039e565b50505050905090565b6000813590506104528161082e565b92915050565b60008135905061046781610845565b92915050565b60006020828403121561047f57600080fd5b600061048d84828501610443565b91505092915050565b6000602082840312156104a857600080fd5b60006104b684828501610458565b91505092915050565b600080604083850312156104d257600080fd5b60006104e085828601610458565b92505060206104f185828601610458565b9150509250929050565b6000610507838361060f565b60608301905092915050565b61051c816107c3565b82525050565b61052b816107c3565b82525050565b600061053c82610733565b610546818561074b565b935061055183610723565b8060005b8381101561058257815161056988826104fb565b97506105748361073e565b925050600181019050610555565b5085935050505092915050565b600061059c601d8361075c565b91507f416d6f756e74206d7573742062652067726561746572207468616e20300000006000830152602082019050919050565b60006105dc601c8361075c565b91507f5072696365206d7573742062652067726561746572207468616e2030000000006000830152602082019050919050565b6060820160008201516106256000850182610513565b5060208201516106386020850182610651565b50604082015161064b6040850182610651565b50505050565b61065a816107f5565b82525050565b610669816107f5565b82525050565b60006060820190506106846000830186610522565b6106916020830185610660565b61069e6040830184610660565b949350505050565b600060208201905081810360008301526106c08184610531565b905092915050565b600060208201905081810360008301526106e18161058f565b9050919050565b60006020820190508181036000830152610701816105cf565b9050919050565b600060208201905061071d6000830184610660565b92915050565b6000819050602082019050919050565b600081519050919050565b6000602082019050919050565b600082825260208201905092915050565b600082825260208201905092915050565b6000610778826107f5565b9150610783836107f5565b9250827fffffffffffffffffffffffffffffffffffffffffffffffffffffffffffffffff038211156107b8576107b76107ff565b5b828201905092915050565b60006107ce826107d5565b9050919050565b600073ffffffffffffffffffffffffffffffffffffffff82169050919050565b6000819050919050565b7f4e487b7100000000000000000000000000000000000000000000000000000000600052601160045260246000fd5b610837816107c3565b811461084257600080fd5b50565b61084e816107f5565b811461085957600080fd5b5056fea26469706673582212206433983e7ff1fb900903bf496a7626fd67f19f592d06da845d518489427d7c4164736f6c63430008000033",
  "immutableReferences": {},
  "source": "// SPDX-License-Identifier: MIT\r\npragma solidity >=0.4.22 <0.9.0;\r\ncontract Energytrading {\r\n    struct Trade {\r\n        address buyer;\r\n        uint256 amount;\r\n        uint256 price;\r\n    }\r\n\r\n    mapping(address => uint256) public balances;\r\n    Trade[] public trades;\r\n\r\n    function tradeEnergy(uint256 _amount, uint256 _price) public {\r\n        require(_amount > 0, \"Amount must be greater than 0\");\r\n        require(_price > 0, \"Price must be greater than 0\");\r\n        \r\n        balances[msg.sender] += _amount;\r\n        trades.push(Trade(msg.sender, _amount, _price));\r\n    }\r\n\r\n    function balanceOf(address _owner) public view returns (uint256) {\r\n        return balances[_owner];\r\n    }\r\n\r\n    function getTrades() public view returns (Trade[] memory) {\r\n        return trades;\r\n    }\r\n}\r\n",
  "sourcePath": "C:\\Users\\mahizsk\\OneDrive\\Desktop\\Block_chain\\my-blockchain-project\\contracts\\EnergyTrading.sol",
  "compiler": {
    "name": "solc",
    "version": "0.8.0+commit.c7dfd78e.Emscripten.clang"
  },
  "schemaVersion": "3.4.16",
  "updatedAt": "2024-10-08T05:26:39.296Z",
  "networkType": "ethereum",
  "devdoc": {
    "kind": "dev",
    "methods": {},
    "version": 1
  },
  "userdoc": {
    "kind": "user",
    "methods": {},
    "version": 1
  }
}