{
  "contractName": "Migrations",
  "abi": [
    {
      "inputs": [],
      "name": "last_completed_migration",
      "outputs": [
        {
          "internalType": "uint256",
          "name": "",
          "type": "uint256"
        }
      ],
      "stateMutability": "view",
      "type": "function",
      "constant": true
    },
    {
      "inputs": [],
      "name": "owner",
      "outputs": [
        {
          "internalType": "address",
          "name": "",
          "type": "address"
        }
      ],
      "stateMutability": "view",
      "type": "function",
      "constant": true
    },
    {
      "inputs": [],
      "name": "initialize",
      "outputs": [],
      "stateMutability": "nonpayable",
      "type": "function"
    },
    {
      "inputs": [
        {
          "internalType": "uint256",
          "name": "completed",
          "type": "uint256"
        }
      ],
      "name": "setCompleted",
      "outputs": [],
      "stateMutability": "nonpayable",
      "type": "function"
    }
  ],
  "bytecode": "0x608060405234801561001057600080fd5b506104cb806100206000396000f3fe608060405234801561001057600080fd5b506004361061004c5760003560e01c8063445df0ac146100515780638129fc1c1461006f5780638da5cb5b14610079578063fdacd57614610097575b600080fd5b6100596100b3565b6040516100669190610416565b60405180910390f35b6100776100b9565b005b6100816101d3565b60405161008e91906103bb565b60405180910390f35b6100b160048036038101906100ac91906102a8565b6101f9565b005b60015481565b600060019054906101000a900460ff16806100df575060008054906101000a900460ff16155b61011e576040517f08c379a0000000000000000000000000000000000000000000000000000000008152600401610115906103d6565b60405180910390fd5b60008060019054906101000a900460ff16159050801561016e576001600060016101000a81548160ff02191690831515021790555060016000806101000a81548160ff0219169083151502179055505b33600060026101000a81548173ffffffffffffffffffffffffffffffffffffffff021916908373ffffffffffffffffffffffffffffffffffffffff16021790555080156101d05760008060016101000a81548160ff0219169083151502179055505b50565b600060029054906101000a900473ffffffffffffffffffffffffffffffffffffffff1681565b600060029054906101000a900473ffffffffffffffffffffffffffffffffffffffff1673ffffffffffffffffffffffffffffffffffffffff163373ffffffffffffffffffffffffffffffffffffffff1614610289576040517f08c379a0000000000000000000000000000000000000000000000000000000008152600401610280906103f6565b60405180910390fd5b8060018190555050565b6000813590506102a28161047e565b92915050565b6000602082840312156102ba57600080fd5b60006102c884828501610293565b91505092915050565b6102da81610442565b82525050565b60006102ed602e83610431565b91507f496e697469616c697a61626c653a20636f6e747261637420697320616c72656160008301527f647920696e697469616c697a65640000000000000000000000000000000000006020830152604082019050919050565b6000610353602183610431565b91507f4f6e6c79206f776e65722063616e20636f6d706c657465206d6967726174696f60008301527f6e000000000000000000000000000000000000000000000000000000000000006020830152604082019050919050565b6103b581610474565b82525050565b60006020820190506103d060008301846102d1565b92915050565b600060208201905081810360008301526103ef816102e0565b9050919050565b6000602082019050818103600083015261040f81610346565b9050919050565b600060208201905061042b60008301846103ac565b92915050565b600082825260208201905092915050565b600061044d82610454565b9050919050565b600073ffffffffffffffffffffffffffffffffffffffff82169050919050565b6000819050919050565b61048781610474565b811461049257600080fd5b5056fea264697066735822122033917801811a706f8faac031f7a34246f5c4f51e3a7e38145e75d8f222609ba664736f6c63430008000033",
  "immutableReferences": {},
  "source": "// SPDX-License-Identifier: MIT\r\npragma solidity >=0.4.22 <0.9.0;\r\n\r\nimport \"@openzeppelin/contracts-upgradeable/proxy/utils/Initializable.sol\";\r\n\r\ncontract Migrations is Initializable {\r\n    address public owner;\r\n    uint public last_completed_migration;\r\n\r\n    function initialize() public initializer {\r\n        owner = msg.sender;\r\n    }\r\n\r\n    function setCompleted(uint completed) public {\r\n        require(msg.sender == owner, \"Only owner can complete migration\");\r\n        last_completed_migration = completed;\r\n    }\r\n}\r\n",
  "sourcePath": "C:\\Users\\mahizsk\\OneDrive\\Desktop\\Block_chain\\my-blockchain-project\\contracts\\Migrations.sol",
  "compiler": {
    "name": "solc",
    "version": "0.8.0+commit.c7dfd78e.Emscripten.clang"
  },
  "schemaVersion": "3.4.16",
  "updatedAt": "2024-10-08T05:26:39.298Z",
  "networkType": "ethereum",
  "devdoc": {
    "kind": "dev",
    "methods": {},
    "version": 1
  },
  "userdoc": {
    "kind": "user",
    "methods": {},
    "version": 1
  }
}